:02000000F028E6
:10000800FF00030E8301B0000A08B1008A017008DE
:10001800A0008B1C1C288B102B08013A031D1628E6
:10002800AB011C282B08003A031D1C280130AB002B
:100038002008F00031088A00300E8300FF0E7F0E82
:020048000900AD
:10004A00710DF80DF90D7408F8027508031C750F87
:10005A00F902F00DF10D0F30FC00710DF80DF90DDC
:10006A007408701C3E28F8027508031C750FF90203
:10007A004328F80775080318750FF907F00DF10DF5
:10008A00FC0B322870184F287408F80775080318F3
:08009A00750FF90700000800D2
:1000A200831203137408003A031D60287508003A8E
:1000B200031D6028FF30F0007F30F100B928831261
:1000C2000313FD01F901F8017108700403190034EA
:1000D20071087506FA00FA1BFD09FB01F51F762867
:1000E200F409F509F40A0319F50AF11F7D28F0094C
:1000F200F109F00A0319F10A71087504FA00FA1BF2
:10010200922825207B18A528FD1F0034F009F1094B
:10011200F00A0319F10AF809F909F80A0319F90AA8
:100122000034F51FA128F11B9D287108F900700801
:10013200F800F101F0018528F101F001F00A003424
:10014200F109F009FB0A8228F80A0319F90A74086E
:100152007802031D852875087902031D8528F90197
:10016200F801F00A0319F10AF11F85280000FF3493
:02017200080083
:0E017400831203132D088A002C088200080055
:100182000A3083120313F4000030F5003208F00045
:100192003308F10051207808F0007908F100700866
:1001A200B4007108B5000A30F4000030F5003208DE
:1001B200F0003308F10051207008213E840000084D
:0601C2003407F000080004
:1001C800BA208A110A128000840AAC0A0319AD0AFF
:0801D800F003031DE4280800F8
:1001E00083120313A1011030A2002030A30030308D
:1001F000A4004030A5005030A6006030A700703049
:10020000A8008030A9009030AA000130AB00073070
:1002100083169F0085010130831285000330831609
:100220008600880183128801831687018312870163
:10023000831689018312890186110611061209109D
:10024000891009118B170B168316011783120511DC
:100250008511051085100130AB00861606132B089A
:10026000013A031D092B861606130514851405157E
:100270008515091009118910061106128611091435
:10028000061286150F30AE000030AF008030F0004F
:1002900080302F067002031D4F292E08003C0318E2
:1002A0001D2A00302F06031D57290C302E06031D72
:1002B0005B29861106168030F00080302F06700210
:1002C000031D64292E080C3C031879292E08B2005E
:1002D0002F08B300C120700887000C302E02B20036
:1002E0000030031C013E2F02B300C12070088800BB
:1002F00087292E08B2002F08B300C120700887009C
:100300002E08B2002F08B300C120700888002B0807
:10031000031D8B291D2A8030F00080302F067002CB
:10032000031D94292E08033C0318A4290930FB005F
:100330001E30FC00E430FD00FD0B9C29FC0B9C29C9
:10034000FB0B9C290000142A86150230FB000430A8
:10035000FC00BA30FD00FD0BAB29FC0BAB29FB0BFD
:10036000AB29000086110230FB000430FC00BA30DB
:10037000FD00FD0BB929FC0BB929FB0BB9290000C5
:1003800086150230FB000430FC00BA30FD00FD0B86
:10039000C729FC0BC729FB0BC729000086110230B7
:1003A000FB000430FC00BA30FD00FD0BD529FC0B2E
:1003B000D529FB0BD529000086150230FB0004303F
:1003C000FC00BA30FD00FD0BE329FC0BE329FB0B1D
:1003D000E329000086110230FB000430FC00BA3033
:1003E000FD00FD0BF129FC0BF129FB0BF1290000AD
:1003F00086150230FB000430FC00BA30FD00FD0B16
:10040000FF29FC0BFF29FB0BFF290000861102309E
:10041000FB000430FC00BA30FD00FD0B0D2AFC0B84
:100420000D2AFB0B0D2A00002B08031D182A1D2A7C
:100430000130AE02031CAF0346292B08031D212AFD
:10044000092B091086110612061509118914173097
:10045000AE000030AF008030F00080302F06700218
:10046000031D342A2E08003C0318022B00302F06EF
:10047000031D3C2A14302E06031D402A891009153D
:100480008030F00080302F067002031D492A2E08AC
:10049000143C03185E2A14302E02B2000030031CF4
:1004A000013E2F02B300C120700887002E08B20061
:1004B0002F08B300C120700888006C2A2E08B200F3
:1004C0002F08B300C120700887002E08B2002F0843
:1004D000B300C120700888002B08031D702A022B6E
:1004E0008030F00080302F067002031D792A2E081C
:1004F000033C0318892A0930FB001E30FC00E4305D
:10050000FD00FD0B812AFC0B812AFB0B812A0000D8
:10051000F92A89140230FB000430FC00BA30FD00D7
:10052000FD0B902AFC0B902AFB0B902A00008910EF
:100530000230FB000430FC00BA30FD00FD0B9E2AA7
:10054000FC0B9E2AFB0B9E2A000089140230FB0044
:100550000430FC00BA30FD00FD0BAC2AFC0BAC2AC9
:10056000FB0BAC2A000089100230FB000430FC00B9
:10057000BA30FD00FD0BBA2AFC0BBA2AFB0BBA2AD3
:10058000000089140230FB000430FC00BA30FD008A
:10059000FD0BC82AFC0BC82AFB0BC82A00008910D7
:1005A0000230FB000430FC00BA30FD00FD0BD62AFF
:1005B000FC0BD62AFB0BD62A000089140230FB0064
:1005C0000430FC00BA30FD00FD0BE42AFC0BE42AE9
:1005D000FB0BE42A000089100230FB000430FC0011
:1005E000BA30FD00FD0BF22AFC0BF22AFB0BF22ABB
:1005F00000002B08031DFD2A022B0130AE02031C54
:10060000AF032B2A061109112B08031D082B092BF8
:100610002F292B08003A031DB32B86120617861CC0
:100620005F2B091009110611061289108611891411
:1006300006152B0803191D2BB32B05118511051465
:1006400085140330AE000030AF008030F000803001
:100650002F067002031D2E2B2E08003C03184D2B75
:100660002E08B2002F08B300C120700887002B08A5
:1006700003193B2B4D2B0930FB001E30FC00E430EE
:10068000FD00FD0B412BFC0B412BFB0B412B000014
:100690000130AE02031CAF03252B2B080319512B8D
:1006A000B32B89100915051085102B08031D5B2B32
:1006B000861C5B2B552B2B0803195F2BB32B2B08A8
:1006C0000319632BB32B8618AE2B091006120611E3
:1006D0000911861109148615051585150510851053
:1006E0000330AE000030AF008030F00080302F06C5
:1006F0007002031D7D2B2E08003C03189C2B2E0836
:10070000B2002F08B300C120700888002B0803191D
:100710008A2B9C2B0930FB001E30FC00E430FD00CE
:10072000FD0B902BFC0B902BFB0B902B0000013052
:10073000AE02031CAF03742B2B080319A02BB32BA1
:1007400086110616051185112B08031DAA2B861884
:10075000AA2BA42B2B080319AE2BB32B2B080319A0
:0A076000B22BB32B092B2F29B42B69
:02400E004A2F37
:00000001FF
