:02000000F028E6
:10000800FF00030E8301B0000A08B1008A017008DE
:10001800A0008B1C1C288B102B08013A031D1628E6
:10002800AB011C282B08003A031D1C280130AB002B
:100038002008F00031088A00300E8300FF0E7F0E82
:020048000900AD
:10004A00710DF80DF90D7408F8027508031C750F87
:10005A00F902F00DF10D0F30FC00710DF80DF90DDC
:10006A007408701C3E28F8027508031C750FF90203
:10007A004328F80775080318750FF907F00DF10DF5
:10008A00FC0B322870184F287408F80775080318F3
:08009A00750FF90700000800D2
:1000A200831203137408003A031D60287508003A8E
:1000B200031D6028FF30F0007F30F100B928831261
:1000C2000313FD01F901F8017108700403190034EA
:1000D20071087506FA00FA1BFD09FB01F51F762867
:1000E200F409F509F40A0319F50AF11F7D28F0094C
:1000F200F109F00A0319F10A71087504FA00FA1BF2
:10010200922825207B18A528FD1F0034F009F1094B
:10011200F00A0319F10AF809F909F80A0319F90AA8
:100122000034F51FA128F11B9D287108F900700801
:10013200F800F101F0018528F101F001F00A003424
:10014200F109F009FB0A8228F80A0319F90A74086E
:100152007802031D852875087902031D8528F90197
:10016200F801F00A0319F10AF11F85280000FF3493
:02017200080083
:0E017400831203132D088A002C088200080055
:100182000A3083120313F4000030F5003208F00045
:100192003308F10051207808F0007908F100700866
:1001A200B4007108B5000A30F4000030F5003208DE
:1001B200F0003308F10051207008213E840000084D
:0601C2003407F000080004
:1001C800BA208A110A128000840AAC0A0319AD0AFF
:0801D800F003031DE4280800F8
:1001E00083120313A1011030A2002030A30030308D
:1001F000A4004030A5005030A6006030A700703049
:10020000A8008030A9009030AA000130AB00073070
:1002100083169F00033086008801831288018316AD
:100220008701831287018316890183128901861150
:10023000061106120910891009118B170B16831667
:100240000117831207118711071087100130AB00C7
:10025000861606132B08013A031DBA2A86160613C2
:10026000071487140715871509100911891006113D
:10027000061286110914061286150F30AE000030E2
:10028000AF008030F00080302F067002031D4A2935
:100290002E08003C0318F32900302F06031D5229B5
:1002A0000C302E06031D5629861106162E08B200A4
:1002B0002F08B300C120700888002B08031D612996
:1002C000F3298030F00080302F067002031D6A2968
:1002D0002E08033C03187A290930FB001E30FC006D
:1002E000E430FD00FD0B7229FC0B7229FB0B722917
:1002F0000000EA2986150230FB000430FC00BA3009
:10030000FD00FD0B8129FC0B8129FB0B81290000DD
:1003100086110230FB000430FC00BA30FD00FD0BFA
:100320008F29FC0B8F29FB0B8F29000086150230CB
:10033000FB000430FC00BA30FD00FD0B9D29FC0BD6
:100340009D29FB0B9D29000086110230FB00043023
:10035000FC00BA30FD00FD0BAB29FC0BAB29FB0BFD
:10036000AB29000086150230FB000430FC00BA30D7
:10037000FD00FD0BB929FC0BB929FB0BB9290000C5
:1003800086110230FB000430FC00BA30FD00FD0B8A
:10039000C729FC0BC729FB0BC729000086150230B3
:1003A000FB000430FC00BA30FD00FD0BD529FC0B2E
:1003B000D529FB0BD529000086110230FB00043043
:1003C000FC00BA30FD00FD0BE329FC0BE329FB0B1D
:1003D000E32900002B08031DEE29F3290130AE02AA
:1003E000031CAF0341292B08031DF729BA2A091062
:1003F000861106120615091189141730AE00003057
:10040000AF008030F00080302F067002031D0A2AF2
:100410002E08003C0318B32A00302F06031D122AB1
:1004200014302E06031D162A891009152E08B20055
:100430002F08B300C120700888002B08031D212A53
:10044000B32A8030F00080302F067002031D2A2A64
:100450002E08033C03183A2A0930FB001E30FC002A
:10046000E430FD00FD0B322AFC0B322AFB0B322A52
:100470000000AA2A89140230FB000430FC00BA30C4
:10048000FD00FD0B412AFC0B412AFB0B412A000019
:1004900089100230FB000430FC00BA30FD00FD0B77
:1004A0004F2AFC0B4F2AFB0B4F2A00008914023005
:1004B000FB000430FC00BA30FD00FD0B5D2AFC0B94
:1004C0005D2AFB0B5D2A000089100230FB0004301E
:1004D000FC00BA30FD00FD0B6B2AFC0B6B2AFB0BFA
:1004E0006B2A000089140230FB000430FC00BA3093
:1004F000FD00FD0B792AFC0B792AFB0B792A000001
:1005000089100230FB000430FC00BA30FD00FD0B06
:10051000872AFC0B872AFB0B872A000089140230EC
:10052000FB000430FC00BA30FD00FD0B952AFC0BEB
:10053000952AFB0B952A000089100230FB0004303D
:10054000FC00BA30FD00FD0BA32AFC0BA32AFB0B19
:10055000A32A00002B08031DAE2AB32A0130AE02E5
:10056000031CAF03012A061109112B08031DB92A28
:10057000BA2A2A292B08003A031D642B8612061773
:10058000861C102B091009110611061289108611FC
:10059000891406152B080319CE2A642B071187111D
:1005A000071487140330AE000030AF008030F00035
:1005B00080302F067002031DDF2A2E08003C03182E
:1005C000FE2A2E08B2002F08B300C1207008880050
:1005D0002B080319EC2AFE2A0930FB001E30FC0010
:1005E000E430FD00FD0BF22AFC0BF22AFB0BF22A91
:1005F00000000130AE02031CAF03D62A2B080319FA
:10060000022B642B89100915071087102B08031D76
:100610000C2B861C0C2B062B2B080319102B642B80
:100620002B080319142B642B86185F2B0910061254
:10063000061109118611091486150715871507106B
:1006400087100330AE000030AF008030F000803003
:100650002F067002031D2E2B2E08003C03184D2B75
:100660002E08B2002F08B300C120700888002B08A4
:1006700003193B2B4D2B0930FB001E30FC00E430EE
:10068000FD00FD0B412BFC0B412BFB0B412B000014
:100690000130AE02031CAF03252B2B080319512B8D
:1006A000642B86110616071187112B08031D5B2B7F
:1006B00086185B2B552B2B0803195F2B642B2B08FB
:0C06C0000319632B642BBA2A2A29652B2E
:02400E004A2F37
:00000001FF
